{
  "_format": "hh-sol-artifact-1",
  "contractName": "CrowdFunding",
  "sourceName": "contracts/CrowdFunding.sol",
  "abi": [
    {
      "inputs": [
        {
          "internalType": "uint256",
          "name": "_projectTax",
          "type": "uint256"
        }
      ],
      "stateMutability": "nonpayable",
      "type": "constructor"
    },
    {
      "inputs": [],
      "name": "ProjectCount",
      "outputs": [
        {
          "internalType": "uint256",
          "name": "",
          "type": "uint256"
        }
      ],
      "stateMutability": "view",
      "type": "function"
    },
    {
      "inputs": [
        {
          "internalType": "uint256",
          "name": "id",
          "type": "uint256"
        },
        {
          "internalType": "string",
          "name": "title",
          "type": "string"
        },
        {
          "internalType": "string",
          "name": "description",
          "type": "string"
        },
        {
          "internalType": "string",
          "name": "imageUrl",
          "type": "string"
        },
        {
          "internalType": "uint256",
          "name": "cost",
          "type": "uint256"
        },
        {
          "internalType": "uint256",
          "name": "minBid",
          "type": "uint256"
        },
        {
          "internalType": "uint256",
          "name": "expiresAt",
          "type": "uint256"
        }
      ],
      "name": "UpdateProject",
      "outputs": [],
      "stateMutability": "payable",
      "type": "function"
    },
    {
      "inputs": [],
      "name": "balance",
      "outputs": [
        {
          "internalType": "uint256",
          "name": "",
          "type": "uint256"
        }
      ],
      "stateMutability": "view",
      "type": "function"
    },
    {
      "inputs": [
        {
          "internalType": "uint256",
          "name": "_projectTax",
          "type": "uint256"
        }
      ],
      "name": "changeTax",
      "outputs": [],
      "stateMutability": "nonpayable",
      "type": "function"
    },
    {
      "inputs": [
        {
          "internalType": "uint256",
          "name": "_id",
          "type": "uint256"
        }
      ],
      "name": "contribution",
      "outputs": [],
      "stateMutability": "payable",
      "type": "function"
    },
    {
      "inputs": [
        {
          "internalType": "string",
          "name": "title",
          "type": "string"
        },
        {
          "internalType": "string",
          "name": "description",
          "type": "string"
        },
        {
          "internalType": "string",
          "name": "imageUrl",
          "type": "string"
        },
        {
          "internalType": "uint256",
          "name": "cost",
          "type": "uint256"
        },
        {
          "internalType": "uint256",
          "name": "minBid",
          "type": "uint256"
        },
        {
          "internalType": "uint256",
          "name": "expiresAt",
          "type": "uint256"
        }
      ],
      "name": "createProject",
      "outputs": [],
      "stateMutability": "payable",
      "type": "function"
    },
    {
      "inputs": [
        {
          "internalType": "uint256",
          "name": "id",
          "type": "uint256"
        }
      ],
      "name": "deleteProject",
      "outputs": [],
      "stateMutability": "nonpayable",
      "type": "function"
    },
    {
      "inputs": [
        {
          "internalType": "uint256",
          "name": "id",
          "type": "uint256"
        }
      ],
      "name": "getFunders",
      "outputs": [
        {
          "components": [
            {
              "internalType": "address",
              "name": "owner",
              "type": "address"
            },
            {
              "internalType": "uint256",
              "name": "contribution",
              "type": "uint256"
            },
            {
              "internalType": "uint256",
              "name": "timestamp",
              "type": "uint256"
            },
            {
              "internalType": "bool",
              "name": "refunded",
              "type": "bool"
            }
          ],
          "internalType": "struct CrowdFunding.funder[]",
          "name": "",
          "type": "tuple[]"
        }
      ],
      "stateMutability": "view",
      "type": "function"
    },
    {
      "inputs": [],
      "name": "getProjectOf",
      "outputs": [
        {
          "components": [
            {
              "internalType": "uint256",
              "name": "id",
              "type": "uint256"
            },
            {
              "internalType": "address",
              "name": "owner",
              "type": "address"
            },
            {
              "internalType": "string",
              "name": "title",
              "type": "string"
            },
            {
              "internalType": "string",
              "name": "description",
              "type": "string"
            },
            {
              "internalType": "string",
              "name": "imageURL",
              "type": "string"
            },
            {
              "internalType": "uint256",
              "name": "cost",
              "type": "uint256"
            },
            {
              "internalType": "uint256",
              "name": "raised",
              "type": "uint256"
            },
            {
              "internalType": "uint256",
              "name": "timestamp",
              "type": "uint256"
            },
            {
              "internalType": "uint256",
              "name": "expiresAt",
              "type": "uint256"
            },
            {
              "internalType": "uint256",
              "name": "minBid",
              "type": "uint256"
            },
            {
              "internalType": "uint256",
              "name": "fundersCount",
              "type": "uint256"
            },
            {
              "internalType": "enum CrowdFunding.statusEnum",
              "name": "status",
              "type": "uint8"
            }
          ],
          "internalType": "struct CrowdFunding.projectStruct[]",
          "name": "",
          "type": "tuple[]"
        }
      ],
      "stateMutability": "view",
      "type": "function"
    },
    {
      "inputs": [],
      "name": "owner",
      "outputs": [
        {
          "internalType": "address",
          "name": "",
          "type": "address"
        }
      ],
      "stateMutability": "view",
      "type": "function"
    },
    {
      "inputs": [
        {
          "internalType": "uint256",
          "name": "id",
          "type": "uint256"
        }
      ],
      "name": "payOut",
      "outputs": [],
      "stateMutability": "payable",
      "type": "function"
    },
    {
      "inputs": [],
      "name": "projectTax",
      "outputs": [
        {
          "internalType": "uint256",
          "name": "",
          "type": "uint256"
        }
      ],
      "stateMutability": "view",
      "type": "function"
    },
    {
      "inputs": [
        {
          "internalType": "uint256",
          "name": "",
          "type": "uint256"
        }
      ],
      "name": "projects",
      "outputs": [
        {
          "internalType": "uint256",
          "name": "id",
          "type": "uint256"
        },
        {
          "internalType": "address",
          "name": "owner",
          "type": "address"
        },
        {
          "internalType": "string",
          "name": "title",
          "type": "string"
        },
        {
          "internalType": "string",
          "name": "description",
          "type": "string"
        },
        {
          "internalType": "string",
          "name": "imageURL",
          "type": "string"
        },
        {
          "internalType": "uint256",
          "name": "cost",
          "type": "uint256"
        },
        {
          "internalType": "uint256",
          "name": "raised",
          "type": "uint256"
        },
        {
          "internalType": "uint256",
          "name": "timestamp",
          "type": "uint256"
        },
        {
          "internalType": "uint256",
          "name": "expiresAt",
          "type": "uint256"
        },
        {
          "internalType": "uint256",
          "name": "minBid",
          "type": "uint256"
        },
        {
          "internalType": "uint256",
          "name": "fundersCount",
          "type": "uint256"
        },
        {
          "internalType": "enum CrowdFunding.statusEnum",
          "name": "status",
          "type": "uint8"
        }
      ],
      "stateMutability": "view",
      "type": "function"
    }
  ],
  "bytecode": "0x60806040523480156200001157600080fd5b5060405162002f6f38038062002f6f8339818101604052810190620000379190620000c5565b336000806101000a81548173ffffffffffffffffffffffffffffffffffffffff021916908373ffffffffffffffffffffffffffffffffffffffff1602179055508060018190555050620000f7565b600080fd5b6000819050919050565b6200009f816200008a565b8114620000ab57600080fd5b50565b600081519050620000bf8162000094565b92915050565b600060208284031215620000de57620000dd62000085565b5b6000620000ee84828501620000ae565b91505092915050565b612e6880620001076000396000f3fe6080604052600436106100c25760003560e01c80637e7ddbaa1161007f578063d24cd3ec11610059578063d24cd3ec14610266578063da333ca614610291578063e8709c40146102ad578063fe6c7797146102c9576100c2565b80637e7ddbaa146101e55780638da5cb5b14610210578063b69ef8a81461023b576100c2565b8063107046bd146100c75780633a7b6c741461010f5780633e45c8af1461014c5780634cd0cb28146101755780635fe68f471461019e57806361c2ce5c146101ba575b600080fd5b3480156100d357600080fd5b506100ee60048036038101906100e99190611ad5565b6102e5565b6040516101069c9b9a99989796959493929190611c59565b60405180910390f35b34801561011b57600080fd5b5061013660048036038101906101319190611ad5565b61050a565b6040516101439190611e65565b60405180910390f35b34801561015857600080fd5b50610173600480360381019061016e9190611ad5565b610607565b005b34801561018157600080fd5b5061019c60048036038101906101979190611ad5565b61069f565b005b6101b860048036038101906101b39190611fbc565b6108fd565b005b3480156101c657600080fd5b506101cf610e59565b6040516101dc91906122ca565b60405180910390f35b3480156101f157600080fd5b506101fa611189565b60405161020791906122ec565b60405180910390f35b34801561021c57600080fd5b5061022561118f565b6040516102329190612307565b60405180910390f35b34801561024757600080fd5b506102506111b3565b60405161025d91906122ec565b60405180910390f35b34801561027257600080fd5b5061027b6111b9565b60405161028891906122ec565b60405180910390f35b6102ab60048036038101906102a69190611ad5565b6111bf565b005b6102c760048036038101906102c29190611ad5565b611343565b005b6102e360048036038101906102de9190612322565b611660565b005b60046020528060005260406000206000915090508060000154908060010160009054906101000a900473ffffffffffffffffffffffffffffffffffffffff169080600201805461033490612447565b80601f016020809104026020016040519081016040528092919081815260200182805461036090612447565b80156103ad5780601f10610382576101008083540402835291602001916103ad565b820191906000526020600020905b81548152906001019060200180831161039057829003601f168201915b5050505050908060030180546103c290612447565b80601f01602080910402602001604051908101604052809291908181526020018280546103ee90612447565b801561043b5780601f106104105761010080835404028352916020019161043b565b820191906000526020600020905b81548152906001019060200180831161041e57829003601f168201915b50505050509080600401805461045090612447565b80601f016020809104026020016040519081016040528092919081815260200182805461047c90612447565b80156104c95780601f1061049e576101008083540402835291602001916104c9565b820191906000526020600020905b8154815290600101906020018083116104ac57829003601f168201915b50505050509080600501549080600601549080600701549080600801549080600901549080600a01549080600b0160009054906101000a900460ff1690508c565b6060600060066000848152602001908152602001600020805480602002602001604051908101604052809291908181526020016000905b828210156105f857838290600052602060002090600402016040518060800160405290816000820160009054906101000a900473ffffffffffffffffffffffffffffffffffffffff1673ffffffffffffffffffffffffffffffffffffffff1673ffffffffffffffffffffffffffffffffffffffff16815260200160018201548152602001600282015481526020016003820160009054906101000a900460ff16151515158152505081526020019060010190610541565b50505050905080915050919050565b60008054906101000a900473ffffffffffffffffffffffffffffffffffffffff1673ffffffffffffffffffffffffffffffffffffffff163373ffffffffffffffffffffffffffffffffffffffff1614610695576040517f08c379a000000000000000000000000000000000000000000000000000000000815260040161068c906124c4565b60405180910390fd5b8060018190555050565b6007600082815260200190815260200160002060009054906101000a900460ff166106ff576040517f08c379a00000000000000000000000000000000000000000000000000000000081526004016106f690612530565b60405180910390fd5b6000600481111561071357610712611be2565b5b60046000838152602001908152602001600020600b0160009054906101000a900460ff16600481111561074957610748611be2565b5b14610789576040517f08c379a00000000000000000000000000000000000000000000000000000000081526004016107809061259c565b60405180910390fd5b6004600082815260200190815260200160002060010160009054906101000a900473ffffffffffffffffffffffffffffffffffffffff1673ffffffffffffffffffffffffffffffffffffffff163373ffffffffffffffffffffffffffffffffffffffff161480610844575060008054906101000a900473ffffffffffffffffffffffffffffffffffffffff1673ffffffffffffffffffffffffffffffffffffffff163373ffffffffffffffffffffffffffffffffffffffff16145b610883576040517f08c379a000000000000000000000000000000000000000000000000000000000815260040161087a90612608565b60405180910390fd5b600360046000838152602001908152602001600020600b0160006101000a81548160ff021916908360048111156108bd576108bc611be2565b5b02179055506004600082815260200190815260200160002060060154600260008282546108ea9190612657565b925050819055506108fa81611823565b50565b6000865111610941576040517f08c379a0000000000000000000000000000000000000000000000000000000008152600401610938906126d7565b60405180910390fd5b600154341015610986576040517f08c379a000000000000000000000000000000000000000000000000000000000815260040161097d90612743565b60405180910390fd5b600083116109c9576040517f08c379a00000000000000000000000000000000000000000000000000000000081526004016109c0906127af565b60405180910390fd5b6000855111610a0d576040517f08c379a0000000000000000000000000000000000000000000000000000000008152600401610a049061281b565b60405180910390fd5b6000845111610a51576040517f08c379a0000000000000000000000000000000000000000000000000000000008152600401610a4890612887565b60405180910390fd5b428111610a93576040517f08c379a0000000000000000000000000000000000000000000000000000000008152600401610a8a906128f3565b60405180910390fd5b610a9b611a02565b60036000815480929190610aae90612913565b919050555060035481600001818152505033816020019073ffffffffffffffffffffffffffffffffffffffff16908173ffffffffffffffffffffffffffffffffffffffff1681525050868160400181905250858160600181905250848160800181905250838160a00181815250508281610120018181525050428160e0018181525050818161010001818152505060008161016001906004811115610b5657610b55611be2565b5b90816004811115610b6a57610b69611be2565b5b81525050600160076000600354815260200190815260200160002060006101000a81548160ff021916908315150217905550600560003373ffffffffffffffffffffffffffffffffffffffff1673ffffffffffffffffffffffffffffffffffffffff1681526020019081526020016000208190806001815401808255809150506001900390600052602060002090600c02016000909190919091506000820151816000015560208201518160010160006101000a81548173ffffffffffffffffffffffffffffffffffffffff021916908373ffffffffffffffffffffffffffffffffffffffff1602179055506040820151816002019081610c6b9190612b07565b506060820151816003019081610c819190612b07565b506080820151816004019081610c979190612b07565b5060a0820151816005015560c0820151816006015560e082015181600701556101008201518160080155610120820151816009015561014082015181600a015561016082015181600b0160006101000a81548160ff02191690836004811115610d0357610d02611be2565b5b02179055505050806004600060035481526020019081526020016000206000820151816000015560208201518160010160006101000a81548173ffffffffffffffffffffffffffffffffffffffff021916908373ffffffffffffffffffffffffffffffffffffffff1602179055506040820151816002019081610d869190612b07565b506060820151816003019081610d9c9190612b07565b506080820151816004019081610db29190612b07565b5060a0820151816005015560c0820151816006015560e082015181600701556101008201518160080155610120820151816009015561014082015181600a015561016082015181600b0160006101000a81548160ff02191690836004811115610e1e57610e1d611be2565b5b0217905550905050610e5060008054906101000a900473ffffffffffffffffffffffffffffffffffffffff1634611987565b50505050505050565b60606000600560003373ffffffffffffffffffffffffffffffffffffffff1673ffffffffffffffffffffffffffffffffffffffff168152602001908152602001600020805480602002602001604051908101604052809291908181526020016000905b8282101561117c57838290600052602060002090600c020160405180610180016040529081600082015481526020016001820160009054906101000a900473ffffffffffffffffffffffffffffffffffffffff1673ffffffffffffffffffffffffffffffffffffffff1673ffffffffffffffffffffffffffffffffffffffff168152602001600282018054610f5090612447565b80601f0160208091040260200160405190810160405280929190818152602001828054610f7c90612447565b8015610fc95780601f10610f9e57610100808354040283529160200191610fc9565b820191906000526020600020905b815481529060010190602001808311610fac57829003601f168201915b50505050508152602001600382018054610fe290612447565b80601f016020809104026020016040519081016040528092919081815260200182805461100e90612447565b801561105b5780601f106110305761010080835404028352916020019161105b565b820191906000526020600020905b81548152906001019060200180831161103e57829003601f168201915b5050505050815260200160048201805461107490612447565b80601f01602080910402602001604051908101604052809291908181526020018280546110a090612447565b80156110ed5780601f106110c2576101008083540402835291602001916110ed565b820191906000526020600020905b8154815290600101906020018083116110d057829003601f168201915b505050505081526020016005820154815260200160068201548152602001600782015481526020016008820154815260200160098201548152602001600a8201548152602001600b820160009054906101000a900460ff16600481111561115757611156611be2565b5b600481111561116957611168611be2565b5b8152505081526020019060010190610ebc565b5050505090508091505090565b60035481565b60008054906101000a900473ffffffffffffffffffffffffffffffffffffffff1681565b60025481565b60015481565b60006004600083815260200190815260200160002090503373ffffffffffffffffffffffffffffffffffffffff168160010160009054906101000a900473ffffffffffffffffffffffffffffffffffffffff1673ffffffffffffffffffffffffffffffffffffffff1614611268576040517f08c379a000000000000000000000000000000000000000000000000000000000815260040161125f90612c25565b60405180910390fd5b6001600481111561127c5761127b611be2565b5b81600b0160009054906101000a900460ff1660048111156112a05761129f611be2565b5b146112e0576040517f08c379a00000000000000000000000000000000000000000000000000000000081526004016112d790612c91565b60405180910390fd5b6113128160010160009054906101000a900473ffffffffffffffffffffffffffffffffffffffff168260060154611987565b600481600b0160006101000a81548160ff0219169083600481111561133a57611339611be2565b5b02179055505050565b600060046000838152602001908152602001600020905080600901543410156113a1576040517f08c379a000000000000000000000000000000000000000000000000000000000815260040161139890612cfd565b60405180910390fd5b6007600083815260200190815260200160002060009054906101000a900460ff16611401576040517f08c379a00000000000000000000000000000000000000000000000000000000081526004016113f890612530565b60405180910390fd5b6000600481111561141557611414611be2565b5b81600b0160009054906101000a900460ff16600481111561143957611438611be2565b5b14611479576040517f08c379a000000000000000000000000000000000000000000000000000000000815260040161147090612d69565b60405180910390fd5b3481600601600082825461148d9190612d89565b92505081905550600181600a0160008282546114a99190612d89565b925050819055506006600083815260200190815260200160002060405180608001604052803373ffffffffffffffffffffffffffffffffffffffff16815260200134815260200142815260200160001515815250908060018154018082558091505060019003906000526020600020906004020160009091909190915060008201518160000160006101000a81548173ffffffffffffffffffffffffffffffffffffffff021916908373ffffffffffffffffffffffffffffffffffffffff160217905550602082015181600101556040820151816002015560608201518160030160006101000a81548160ff021916908315150217905550505080600501548160060154106115fd57600181600b0160006101000a81548160ff021916908360048111156115da576115d9611be2565b5b02179055508060060154600260008282546115f59190612d89565b925050819055505b8060080154421061165c57600281600b0160006101000a81548160ff021916908360048111156116305761162f611be2565b5b021790555080600601546002600082825461164b9190612657565b9250508190555061165b82611823565b5b5050565b60008651116116a4576040517f08c379a000000000000000000000000000000000000000000000000000000000815260040161169b906126d7565b60405180910390fd5b600083116116e7576040517f08c379a00000000000000000000000000000000000000000000000000000000081526004016116de906127af565b60405180910390fd5b600085511161172b576040517f08c379a00000000000000000000000000000000000000000000000000000000081526004016117229061281b565b60405180910390fd5b600084511161176f576040517f08c379a000000000000000000000000000000000000000000000000000000000815260040161176690612887565b60405180910390fd5b4281116117b1576040517f08c379a00000000000000000000000000000000000000000000000000000000081526004016117a8906128f3565b60405180910390fd5b6000600460008981526020019081526020016000209050868160020190816117d99190612b07565b50858160030190816117eb9190612b07565b50848160040190816117fd9190612b07565b508381600501819055508281600901819055508181600801819055505050505050505050565b60005b600660008381526020019081526020016000208054905081101561198357600060066000848152602001908152602001600020828154811061186b5761186a612dbd565b5b906000526020600020906004020160000160009054906101000a900473ffffffffffffffffffffffffffffffffffffffff16905060006006600085815260200190815260200160002083815481106118c6576118c5612dbd565b5b9060005260206000209060040201600101549050600160066000868152602001908152602001600020848154811061190157611900612dbd565b5b906000526020600020906004020160030160006101000a81548160ff0219169083151502179055504260066000868152602001908152602001600020848154811061194f5761194e612dbd565b5b90600052602060002090600402016002018190555061196e8282611987565b5050808061197b90612913565b915050611826565b5050565b60008273ffffffffffffffffffffffffffffffffffffffff16826040516119ad90612e1d565b60006040518083038185875af1925050503d80600081146119ea576040519150601f19603f3d011682016040523d82523d6000602084013e6119ef565b606091505b50509050806119fd57600080fd5b505050565b60405180610180016040528060008152602001600073ffffffffffffffffffffffffffffffffffffffff16815260200160608152602001606081526020016060815260200160008152602001600081526020016000815260200160008152602001600081526020016000815260200160006004811115611a8557611a84611be2565b5b81525090565b6000604051905090565b600080fd5b600080fd5b6000819050919050565b611ab281611a9f565b8114611abd57600080fd5b50565b600081359050611acf81611aa9565b92915050565b600060208284031215611aeb57611aea611a95565b5b6000611af984828501611ac0565b91505092915050565b611b0b81611a9f565b82525050565b600073ffffffffffffffffffffffffffffffffffffffff82169050919050565b6000611b3c82611b11565b9050919050565b611b4c81611b31565b82525050565b600081519050919050565b600082825260208201905092915050565b60005b83811015611b8c578082015181840152602081019050611b71565b60008484015250505050565b6000601f19601f8301169050919050565b6000611bb482611b52565b611bbe8185611b5d565b9350611bce818560208601611b6e565b611bd781611b98565b840191505092915050565b7f4e487b7100000000000000000000000000000000000000000000000000000000600052602160045260246000fd5b60058110611c2257611c21611be2565b5b50565b6000819050611c3382611c11565b919050565b6000611c4382611c25565b9050919050565b611c5381611c38565b82525050565b600061018082019050611c6f600083018f611b02565b611c7c602083018e611b43565b8181036040830152611c8e818d611ba9565b90508181036060830152611ca2818c611ba9565b90508181036080830152611cb6818b611ba9565b9050611cc560a083018a611b02565b611cd260c0830189611b02565b611cdf60e0830188611b02565b611ced610100830187611b02565b611cfb610120830186611b02565b611d09610140830185611b02565b611d17610160830184611c4a565b9d9c50505050505050505050505050565b600081519050919050565b600082825260208201905092915050565b6000819050602082019050919050565b611d5d81611b31565b82525050565b611d6c81611a9f565b82525050565b60008115159050919050565b611d8781611d72565b82525050565b608082016000820151611da36000850182611d54565b506020820151611db66020850182611d63565b506040820151611dc96040850182611d63565b506060820151611ddc6060850182611d7e565b50505050565b6000611dee8383611d8d565b60808301905092915050565b6000602082019050919050565b6000611e1282611d28565b611e1c8185611d33565b9350611e2783611d44565b8060005b83811015611e58578151611e3f8882611de2565b9750611e4a83611dfa565b925050600181019050611e2b565b5085935050505092915050565b60006020820190508181036000830152611e7f8184611e07565b905092915050565b600080fd5b600080fd5b7f4e487b7100000000000000000000000000000000000000000000000000000000600052604160045260246000fd5b611ec982611b98565b810181811067ffffffffffffffff82111715611ee857611ee7611e91565b5b80604052505050565b6000611efb611a8b565b9050611f078282611ec0565b919050565b600067ffffffffffffffff821115611f2757611f26611e91565b5b611f3082611b98565b9050602081019050919050565b82818337600083830152505050565b6000611f5f611f5a84611f0c565b611ef1565b905082815260208101848484011115611f7b57611f7a611e8c565b5b611f86848285611f3d565b509392505050565b600082601f830112611fa357611fa2611e87565b5b8135611fb3848260208601611f4c565b91505092915050565b60008060008060008060c08789031215611fd957611fd8611a95565b5b600087013567ffffffffffffffff811115611ff757611ff6611a9a565b5b61200389828a01611f8e565b965050602087013567ffffffffffffffff81111561202457612023611a9a565b5b61203089828a01611f8e565b955050604087013567ffffffffffffffff81111561205157612050611a9a565b5b61205d89828a01611f8e565b945050606061206e89828a01611ac0565b935050608061207f89828a01611ac0565b92505060a061209089828a01611ac0565b9150509295509295509295565b600081519050919050565b600082825260208201905092915050565b6000819050602082019050919050565b600082825260208201905092915050565b60006120e582611b52565b6120ef81856120c9565b93506120ff818560208601611b6e565b61210881611b98565b840191505092915050565b61211c81611c38565b82525050565b60006101808301600083015161213b6000860182611d63565b50602083015161214e6020860182611d54565b506040830151848203604086015261216682826120da565b9150506060830151848203606086015261218082826120da565b9150506080830151848203608086015261219a82826120da565b91505060a08301516121af60a0860182611d63565b5060c08301516121c260c0860182611d63565b5060e08301516121d560e0860182611d63565b506101008301516121ea610100860182611d63565b506101208301516121ff610120860182611d63565b50610140830151612214610140860182611d63565b50610160830151612229610160860182612113565b508091505092915050565b60006122408383612122565b905092915050565b6000602082019050919050565b60006122608261209d565b61226a81856120a8565b93508360208202850161227c856120b9565b8060005b858110156122b857848403895281516122998582612234565b94506122a483612248565b925060208a01995050600181019050612280565b50829750879550505050505092915050565b600060208201905081810360008301526122e48184612255565b905092915050565b60006020820190506123016000830184611b02565b92915050565b600060208201905061231c6000830184611b43565b92915050565b600080600080600080600060e0888a03121561234157612340611a95565b5b600061234f8a828b01611ac0565b975050602088013567ffffffffffffffff8111156123705761236f611a9a565b5b61237c8a828b01611f8e565b965050604088013567ffffffffffffffff81111561239d5761239c611a9a565b5b6123a98a828b01611f8e565b955050606088013567ffffffffffffffff8111156123ca576123c9611a9a565b5b6123d68a828b01611f8e565b94505060806123e78a828b01611ac0565b93505060a06123f88a828b01611ac0565b92505060c06124098a828b01611ac0565b91505092959891949750929550565b7f4e487b7100000000000000000000000000000000000000000000000000000000600052602260045260246000fd5b6000600282049050600182168061245f57607f821691505b60208210810361247257612471612418565b5b50919050565b7f4f776e6572207265736572766564206f6e6c7900000000000000000000000000600082015250565b60006124ae601383611b5d565b91506124b982612478565b602082019050919050565b600060208201905081810360008301526124dd816124a1565b9050919050565b7f70726f6a656374206e6f7420666f756e64000000000000000000000000000000600082015250565b600061251a601183611b5d565b9150612525826124e4565b602082019050919050565b600060208201905081810360008301526125498161250d565b9050919050565b7f70726f6a656374206e6f206c6f6e676572000000000000000000000000000000600082015250565b6000612586601183611b5d565b915061259182612550565b602082019050919050565b600060208201905081810360008301526125b581612579565b9050919050565b7f556e617574686f72697a6564206964656e746974790000000000000000000000600082015250565b60006125f2601583611b5d565b91506125fd826125bc565b602082019050919050565b60006020820190508181036000830152612621816125e5565b9050919050565b7f4e487b7100000000000000000000000000000000000000000000000000000000600052601160045260246000fd5b600061266282611a9f565b915061266d83611a9f565b925082820390508181111561268557612684612628565b5b92915050565b7f4e6f7420656e6f756768207469746c6500000000000000000000000000000000600082015250565b60006126c1601083611b5d565b91506126cc8261268b565b602082019050919050565b600060208201905081810360008301526126f0816126b4565b9050919050565b7f5061792074686520746178657300000000000000000000000000000000000000600082015250565b600061272d600d83611b5d565b9150612738826126f7565b602082019050919050565b6000602082019050818103600083015261275c81612720565b9050919050565b7f6e65656420636f73740000000000000000000000000000000000000000000000600082015250565b6000612799600983611b5d565b91506127a482612763565b602082019050919050565b600060208201905081810360008301526127c88161278c565b9050919050565b7f4465736372697074696f6e206e6f7420656e6f75676800000000000000000000600082015250565b6000612805601683611b5d565b9150612810826127cf565b602082019050919050565b60006020820190508181036000830152612834816127f8565b9050919050565b7f496d61676555726c2063616e206e6f7420656e6f756768000000000000000000600082015250565b6000612871601783611b5d565b915061287c8261283b565b602082019050919050565b600060208201905081810360008301526128a081612864565b9050919050565b7f6e6f7420656e6f7567682074696d650000000000000000000000000000000000600082015250565b60006128dd600f83611b5d565b91506128e8826128a7565b602082019050919050565b6000602082019050818103600083015261290c816128d0565b9050919050565b600061291e82611a9f565b91507fffffffffffffffffffffffffffffffffffffffffffffffffffffffffffffffff82036129505761294f612628565b5b600182019050919050565b60008190508160005260206000209050919050565b60006020601f8301049050919050565b600082821b905092915050565b6000600883026129bd7fffffffffffffffffffffffffffffffffffffffffffffffffffffffffffffffff82612980565b6129c78683612980565b95508019841693508086168417925050509392505050565b6000819050919050565b6000612a046129ff6129fa84611a9f565b6129df565b611a9f565b9050919050565b6000819050919050565b612a1e836129e9565b612a32612a2a82612a0b565b84845461298d565b825550505050565b600090565b612a47612a3a565b612a52818484612a15565b505050565b5b81811015612a7657612a6b600082612a3f565b600181019050612a58565b5050565b601f821115612abb57612a8c8161295b565b612a9584612970565b81016020851015612aa4578190505b612ab8612ab085612970565b830182612a57565b50505b505050565b600082821c905092915050565b6000612ade60001984600802612ac0565b1980831691505092915050565b6000612af78383612acd565b9150826002028217905092915050565b612b1082611b52565b67ffffffffffffffff811115612b2957612b28611e91565b5b612b338254612447565b612b3e828285612a7a565b600060209050601f831160018114612b715760008415612b5f578287015190505b612b698582612aeb565b865550612bd1565b601f198416612b7f8661295b565b60005b82811015612ba757848901518255600182019150602085019450602081019050612b82565b86831015612bc45784890151612bc0601f891682612acd565b8355505b6001600288020188555050505b505050505050565b7f4f6e6c792050726f6a656374204f776e65720000000000000000000000000000600082015250565b6000612c0f601283611b5d565b9150612c1a82612bd9565b602082019050919050565b60006020820190508181036000830152612c3e81612c02565b9050919050565b7f4e6f742072656163686564207461726765740000000000000000000000000000600082015250565b6000612c7b601283611b5d565b9150612c8682612c45565b602082019050919050565b60006020820190508181036000830152612caa81612c6e565b9050919050565b7f66756e64206d6f7265207468616e206d696e20646f6e7461696f6e0000000000600082015250565b6000612ce7601b83611b5d565b9150612cf282612cb1565b602082019050919050565b60006020820190508181036000830152612d1681612cda565b9050919050565b7f50726f6a656374206e6f206c6f6e676572206f70656e65640000000000000000600082015250565b6000612d53601883611b5d565b9150612d5e82612d1d565b602082019050919050565b60006020820190508181036000830152612d8281612d46565b9050919050565b6000612d9482611a9f565b9150612d9f83611a9f565b9250828201905080821115612db757612db6612628565b5b92915050565b7f4e487b7100000000000000000000000000000000000000000000000000000000600052603260045260246000fd5b600081905092915050565b50565b6000612e07600083612dec565b9150612e1282612df7565b600082019050919050565b6000612e2882612dfa565b915081905091905056fea264697066735822122047c0cc62dded2b23898f2effdf3ca2b383b13f9ed55f4130f63117e4422b522a64736f6c63430008110033",
  "linkReferences": {},
  "deployedLinkReferences": {}
}